{
  "contractName": "MedicalSupplyChain",
  "abi": [
    {
      "inputs": [],
      "stateMutability": "nonpayable",
      "type": "constructor"
    },
    {
      "anonymous": false,
      "inputs": [
        {
          "indexed": true,
          "internalType": "uint256",
          "name": "id",
          "type": "uint256"
        },
        {
          "indexed": false,
          "internalType": "string",
          "name": "name",
          "type": "string"
        },
        {
          "indexed": false,
          "internalType": "uint256",
          "name": "quantity",
          "type": "uint256"
        },
        {
          "indexed": false,
          "internalType": "address",
          "name": "buyer",
          "type": "address"
        }
      ],
      "name": "MedicinePurchased",
      "type": "event"
    },
    {
      "anonymous": false,
      "inputs": [
        {
          "indexed": true,
          "internalType": "uint256",
          "name": "id",
          "type": "uint256"
        },
        {
          "indexed": false,
          "internalType": "string",
          "name": "name",
          "type": "string"
        },
        {
          "indexed": false,
          "internalType": "uint256",
          "name": "quantity",
          "type": "uint256"
        },
        {
          "indexed": false,
          "internalType": "address",
          "name": "supplier",
          "type": "address"
        }
      ],
      "name": "MedicineRestocked",
      "type": "event"
    },
    {
      "inputs": [
        {
          "internalType": "uint256",
          "name": "",
          "type": "uint256"
        }
      ],
      "name": "medicines",
      "outputs": [
        {
          "internalType": "uint256",
          "name": "id",
          "type": "uint256"
        },
        {
          "internalType": "string",
          "name": "name",
          "type": "string"
        },
        {
          "internalType": "uint256",
          "name": "quantity",
          "type": "uint256"
        },
        {
          "internalType": "address",
          "name": "supplier",
          "type": "address"
        },
        {
          "internalType": "bool",
          "name": "available",
          "type": "bool"
        }
      ],
      "stateMutability": "view",
      "type": "function"
    },
    {
      "inputs": [],
      "name": "nextMedicineId",
      "outputs": [
        {
          "internalType": "uint256",
          "name": "",
          "type": "uint256"
        }
      ],
      "stateMutability": "view",
      "type": "function"
    },
    {
      "inputs": [],
      "name": "owner",
      "outputs": [
        {
          "internalType": "address",
          "name": "",
          "type": "address"
        }
      ],
      "stateMutability": "view",
      "type": "function"
    },
    {
      "inputs": [
        {
          "internalType": "uint256",
          "name": "_id",
          "type": "uint256"
        },
        {
          "internalType": "uint256",
          "name": "_quantity",
          "type": "uint256"
        }
      ],
      "name": "purchaseMedicine",
      "outputs": [],
      "stateMutability": "payable",
      "type": "function"
    },
    {
      "inputs": [
        {
          "internalType": "string",
          "name": "_name",
          "type": "string"
        },
        {
          "internalType": "uint256",
          "name": "_quantity",
          "type": "uint256"
        },
        {
          "internalType": "address",
          "name": "_supplier",
          "type": "address"
        }
      ],
      "name": "addMedicine",
      "outputs": [],
      "stateMutability": "nonpayable",
      "type": "function"
    },
    {
      "inputs": [
        {
          "internalType": "uint256",
          "name": "_id",
          "type": "uint256"
        },
        {
          "internalType": "bool",
          "name": "_available",
          "type": "bool"
        }
      ],
      "name": "updateMedicineAvailability",
      "outputs": [],
      "stateMutability": "nonpayable",
      "type": "function"
    }
  ],
  "bytecode": "0x608060405234801561000f575f80fd5b50335f806101000a81548173ffffffffffffffffffffffffffffffffffffffff021916908373ffffffffffffffffffffffffffffffffffffffff1602179055506001600281905550611249806100645f395ff3fe608060405260043610610053575f3560e01c8062adb0f8146100575780638da5cb5b14610081578063c0c941d9146100ab578063c85e766d146100d3578063c8a9024214610113578063c91580ba1461013b575b5f80fd5b348015610062575f80fd5b5061006b610157565b604051610078919061072f565b60405180910390f35b34801561008c575f80fd5b5061009561015d565b6040516100a29190610787565b60405180910390f35b3480156100b6575f80fd5b506100d160048036038101906100cc9190610941565b610180565b005b3480156100de575f80fd5b506100f960048036038101906100f491906109ad565b61030f565b60405161010a959493929190610a6c565b60405180910390f35b34801561011e575f80fd5b5061013960048036038101906101349190610aee565b6103f3565b005b61015560048036038101906101509190610b2c565b6104b0565b005b60025481565b5f8054906101000a900473ffffffffffffffffffffffffffffffffffffffff1681565b5f8054906101000a900473ffffffffffffffffffffffffffffffffffffffff1673ffffffffffffffffffffffffffffffffffffffff163373ffffffffffffffffffffffffffffffffffffffff161461020d576040517f08c379a000000000000000000000000000000000000000000000000000000000815260040161020490610bda565b60405180910390fd5b6040518060a0016040528060025481526020018481526020018381526020018273ffffffffffffffffffffffffffffffffffffffff1681526020016001151581525060015f60025481526020019081526020015f205f820151815f0155602082015181600101908161027f9190610df2565b50604082015181600201556060820151816003015f6101000a81548173ffffffffffffffffffffffffffffffffffffffff021916908373ffffffffffffffffffffffffffffffffffffffff16021790555060808201518160030160146101000a81548160ff02191690831515021790555090505060025f81548092919061030590610eee565b9190505550505050565b6001602052805f5260405f205f91509050805f01549080600101805461033490610c25565b80601f016020809104026020016040519081016040528092919081815260200182805461036090610c25565b80156103ab5780601f10610382576101008083540402835291602001916103ab565b820191905f5260205f20905b81548152906001019060200180831161038e57829003601f168201915b505050505090806002015490806003015f9054906101000a900473ffffffffffffffffffffffffffffffffffffffff16908060030160149054906101000a900460ff16905085565b5f8054906101000a900473ffffffffffffffffffffffffffffffffffffffff1673ffffffffffffffffffffffffffffffffffffffff163373ffffffffffffffffffffffffffffffffffffffff1614610480576040517f08c379a000000000000000000000000000000000000000000000000000000000815260040161047790610bda565b60405180910390fd5b8060015f8481526020019081526020015f2060030160146101000a81548160ff0219169083151502179055505050565b60015f8381526020019081526020015f2060030160149054906101000a900460ff16610511576040517f08c379a000000000000000000000000000000000000000000000000000000000815260040161050890610f7f565b60405180910390fd5b8060015f8481526020019081526020015f20600201541015610568576040517f08c379a000000000000000000000000000000000000000000000000000000000815260040161055f90610fe7565b60405180910390fd5b67016345785d8a00008161057c9190611005565b34146105bd576040517f08c379a00000000000000000000000000000000000000000000000000000000081526004016105b490611090565b60405180910390fd5b5f8054906101000a900473ffffffffffffffffffffffffffffffffffffffff1673ffffffffffffffffffffffffffffffffffffffff166108fc3490811502906040515f60405180830381858888f1935050505015801561061f573d5f803e3d5ffd5b508060015f8481526020019081526020015f206002015f82825461064391906110ae565b92505081905550817f55b61cf0bb933e62c32254cd983a5fed5bcffadb5a60175270b7ea326afd22a060015f8581526020019081526020015f20600101833360405161069193929190611162565b60405180910390a2600a60015f8481526020019081526020015f206002015410156106c0576106bf826106c4565b5b5050565b807f9d9881660331f3b70643f9fb55a301fb1e7a4795b16c60b76fdb7d6dfedfc8fe60015f8481526020019081526020015f2060010160645f60405161070c939291906111d7565b60405180910390a250565b5f819050919050565b61072981610717565b82525050565b5f6020820190506107425f830184610720565b92915050565b5f73ffffffffffffffffffffffffffffffffffffffff82169050919050565b5f61077182610748565b9050919050565b61078181610767565b82525050565b5f60208201905061079a5f830184610778565b92915050565b5f604051905090565b5f80fd5b5f80fd5b5f80fd5b5f80fd5b5f601f19601f8301169050919050565b7f4e487b71000000000000000000000000000000000000000000000000000000005f52604160045260245ffd5b6107ff826107b9565b810181811067ffffffffffffffff8211171561081e5761081d6107c9565b5b80604052505050565b5f6108306107a0565b905061083c82826107f6565b919050565b5f67ffffffffffffffff82111561085b5761085a6107c9565b5b610864826107b9565b9050602081019050919050565b828183375f83830152505050565b5f61089161088c84610841565b610827565b9050828152602081018484840111156108ad576108ac6107b5565b5b6108b8848285610871565b509392505050565b5f82601f8301126108d4576108d36107b1565b5b81356108e484826020860161087f565b91505092915050565b6108f681610717565b8114610900575f80fd5b50565b5f81359050610911816108ed565b92915050565b61092081610767565b811461092a575f80fd5b50565b5f8135905061093b81610917565b92915050565b5f805f60608486031215610958576109576107a9565b5b5f84013567ffffffffffffffff811115610975576109746107ad565b5b610981868287016108c0565b935050602061099286828701610903565b92505060406109a38682870161092d565b9150509250925092565b5f602082840312156109c2576109c16107a9565b5b5f6109cf84828501610903565b91505092915050565b5f81519050919050565b5f82825260208201905092915050565b5f5b83811015610a0f5780820151818401526020810190506109f4565b5f8484015250505050565b5f610a24826109d8565b610a2e81856109e2565b9350610a3e8185602086016109f2565b610a47816107b9565b840191505092915050565b5f8115159050919050565b610a6681610a52565b82525050565b5f60a082019050610a7f5f830188610720565b8181036020830152610a918187610a1a565b9050610aa06040830186610720565b610aad6060830185610778565b610aba6080830184610a5d565b9695505050505050565b610acd81610a52565b8114610ad7575f80fd5b50565b5f81359050610ae881610ac4565b92915050565b5f8060408385031215610b0457610b036107a9565b5b5f610b1185828601610903565b9250506020610b2285828601610ada565b9150509250929050565b5f8060408385031215610b4257610b416107a9565b5b5f610b4f85828601610903565b9250506020610b6085828601610903565b9150509250929050565b7f4f6e6c79206f776e65722063616e2063616c6c20746869732066756e6374696f5f8201527f6e00000000000000000000000000000000000000000000000000000000000000602082015250565b5f610bc46021836109e2565b9150610bcf82610b6a565b604082019050919050565b5f6020820190508181035f830152610bf181610bb8565b9050919050565b7f4e487b71000000000000000000000000000000000000000000000000000000005f52602260045260245ffd5b5f6002820490506001821680610c3c57607f821691505b602082108103610c4f57610c4e610bf8565b5b50919050565b5f819050815f5260205f209050919050565b5f6020601f8301049050919050565b5f82821b905092915050565b5f60088302610cb17fffffffffffffffffffffffffffffffffffffffffffffffffffffffffffffffff82610c76565b610cbb8683610c76565b95508019841693508086168417925050509392505050565b5f819050919050565b5f610cf6610cf1610cec84610717565b610cd3565b610717565b9050919050565b5f819050919050565b610d0f83610cdc565b610d23610d1b82610cfd565b848454610c82565b825550505050565b5f90565b610d37610d2b565b610d42818484610d06565b505050565b5b81811015610d6557610d5a5f82610d2f565b600181019050610d48565b5050565b601f821115610daa57610d7b81610c55565b610d8484610c67565b81016020851015610d93578190505b610da7610d9f85610c67565b830182610d47565b50505b505050565b5f82821c905092915050565b5f610dca5f1984600802610daf565b1980831691505092915050565b5f610de28383610dbb565b9150826002028217905092915050565b610dfb826109d8565b67ffffffffffffffff811115610e1457610e136107c9565b5b610e1e8254610c25565b610e29828285610d69565b5f60209050601f831160018114610e5a575f8415610e48578287015190505b610e528582610dd7565b865550610eb9565b601f198416610e6886610c55565b5f5b82811015610e8f57848901518255600182019150602085019450602081019050610e6a565b86831015610eac5784890151610ea8601f891682610dbb565b8355505b6001600288020188555050505b505050505050565b7f4e487b71000000000000000000000000000000000000000000000000000000005f52601160045260245ffd5b5f610ef882610717565b91507fffffffffffffffffffffffffffffffffffffffffffffffffffffffffffffffff8203610f2a57610f29610ec1565b5b600182019050919050565b7f4d65646963696e65206973206e6f7420617661696c61626c65000000000000005f82015250565b5f610f696019836109e2565b9150610f7482610f35565b602082019050919050565b5f6020820190508181035f830152610f9681610f5d565b9050919050565b7f4e6f7420656e6f756768207175616e7469747920617661696c61626c650000005f82015250565b5f610fd1601d836109e2565b9150610fdc82610f9d565b602082019050919050565b5f6020820190508181035f830152610ffe81610fc5565b9050919050565b5f61100f82610717565b915061101a83610717565b925082820261102881610717565b9150828204841483151761103f5761103e610ec1565b5b5092915050565b7f496e636f7272656374207061796d656e7420616d6f756e7400000000000000005f82015250565b5f61107a6018836109e2565b915061108582611046565b602082019050919050565b5f6020820190508181035f8301526110a78161106e565b9050919050565b5f6110b882610717565b91506110c383610717565b92508282039050818111156110db576110da610ec1565b5b92915050565b5f81546110ed81610c25565b6110f781866109e2565b9450600182165f8114611111576001811461112757611159565b60ff198316865281151560200286019350611159565b61113085610c55565b5f5b8381101561115157815481890152600182019150602081019050611132565b808801955050505b50505092915050565b5f6060820190508181035f83015261117a81866110e1565b90506111896020830185610720565b6111966040830184610778565b949350505050565b5f819050919050565b5f6111c16111bc6111b78461119e565b610cd3565b610717565b9050919050565b6111d1816111a7565b82525050565b5f6060820190508181035f8301526111ef81866110e1565b90506111fe60208301856111c8565b61120b6040830184610778565b94935050505056fea264697066735822122077d77e17ed084c71db993e88f3975f26b4432293e5bfceaa37eba18b1653969264736f6c63430008150033",
  "immutableReferences": {},
  "source": "// SPDX-License-Identifier: MIT\r\npragma solidity ^0.8.0;\r\n\r\ncontract MedicalSupplyChain {\r\n    address public owner;\r\n    \r\n    struct Medicine {\r\n        uint256 id;\r\n        string name;\r\n        uint256 quantity;\r\n        address supplier;\r\n        bool available;\r\n    }\r\n    \r\n    mapping(uint256 => Medicine) public medicines;\r\n    uint256 public nextMedicineId;\r\n    \r\n    event MedicinePurchased(uint256 indexed id, string name, uint256 quantity, address buyer);\r\n    event MedicineRestocked(uint256 indexed id, string name, uint256 quantity, address supplier);\r\n    \r\n    constructor() {\r\n        owner = msg.sender;\r\n        nextMedicineId = 1;\r\n    }\r\n    \r\n    modifier onlyOwner() {\r\n        require(msg.sender == owner, \"Only owner can call this function\");\r\n        _;\r\n    }\r\n    \r\n    function purchaseMedicine(uint256 _id, uint256 _quantity) external payable {\r\n        require(medicines[_id].available, \"Medicine is not available\");\r\n        require(medicines[_id].quantity >= _quantity, \"Not enough quantity available\");\r\n        require(msg.value == _quantity * 0.1 ether, \"Incorrect payment amount\");\r\n        \r\n        payable(owner).transfer(msg.value); // Transfer payment to owner\r\n        \r\n        medicines[_id].quantity -= _quantity;\r\n        \r\n        emit MedicinePurchased(_id, medicines[_id].name, _quantity, msg.sender);\r\n        \r\n        if (medicines[_id].quantity < 10) {\r\n            autoRestockMedicine(_id);\r\n        }\r\n    }\r\n    \r\n    function autoRestockMedicine(uint256 _id) internal {\r\n        // Implement the logic to restock the medicine automatically\r\n        // This can involve interacting with a supplier contract or external API\r\n        // For demonstration purposes, we'll emit an event here\r\n        emit MedicineRestocked(_id, medicines[_id].name, 100, address(0));\r\n    }\r\n    \r\n    function addMedicine(string memory _name, uint256 _quantity, address _supplier) external onlyOwner {\r\n        medicines[nextMedicineId] = Medicine(nextMedicineId, _name, _quantity, _supplier, true);\r\n        nextMedicineId++;\r\n    }\r\n    \r\n    function updateMedicineAvailability(uint256 _id, bool _available) external onlyOwner {\r\n        medicines[_id].available = _available;\r\n    }\r\n}\r\n",
  "sourcePath": "C:\\Users\\sneha gummula\\Desktop\\Medical store management system\\contracts\\MedicalSupplyChain.sol",
  "compiler": {
    "name": "solc",
    "version": "0.8.21+commit.d9974bed.Emscripten.clang"
  },
  "schemaVersion": "3.4.16",
  "updatedAt": "2024-04-03T18:31:44.139Z",
  "devdoc": {
    "kind": "dev",
    "methods": {},
    "version": 1
  },
  "userdoc": {
    "kind": "user",
    "methods": {},
    "version": 1
  }
}